{
  "_format": "hh-sol-artifact-1",
  "contractName": "Subscription",
  "sourceName": "contracts/SubscriptionPay.sol",
  "abi": [
    {
      "inputs": [
        {
          "internalType": "uint256",
          "name": "basicPrice",
          "type": "uint256"
        },
        {
          "internalType": "uint256",
          "name": "premiumPrice",
          "type": "uint256"
        },
        {
          "internalType": "uint256",
          "name": "cinematicPrice",
          "type": "uint256"
        }
      ],
      "stateMutability": "nonpayable",
      "type": "constructor"
    },
    {
      "anonymous": false,
      "inputs": [
        {
          "indexed": true,
          "internalType": "address",
          "name": "user",
          "type": "address"
        }
      ],
      "name": "Cancelled",
      "type": "event"
    },
    {
      "anonymous": false,
      "inputs": [
        {
          "indexed": false,
          "internalType": "enum Subscription.Plan",
          "name": "plan",
          "type": "uint8"
        },
        {
          "indexed": false,
          "internalType": "uint256",
          "name": "price",
          "type": "uint256"
        }
      ],
      "name": "PriceUpdated",
      "type": "event"
    },
    {
      "anonymous": false,
      "inputs": [
        {
          "indexed": true,
          "internalType": "address",
          "name": "user",
          "type": "address"
        },
        {
          "indexed": false,
          "internalType": "enum Subscription.Plan",
          "name": "plan",
          "type": "uint8"
        },
        {
          "indexed": false,
          "internalType": "uint256",
          "name": "expiresAt",
          "type": "uint256"
        }
      ],
      "name": "Subscribed",
      "type": "event"
    },
    {
      "inputs": [
        {
          "internalType": "enum Subscription.Plan",
          "name": "plan",
          "type": "uint8"
        },
        {
          "internalType": "uint256",
          "name": "months",
          "type": "uint256"
        }
      ],
      "name": "buyPlan",
      "outputs": [],
      "stateMutability": "payable",
      "type": "function"
    },
    {
      "inputs": [],
      "name": "cancel",
      "outputs": [],
      "stateMutability": "nonpayable",
      "type": "function"
    },
    {
      "inputs": [
        {
          "internalType": "address",
          "name": "user",
          "type": "address"
        }
      ],
      "name": "getSubscription",
      "outputs": [
        {
          "internalType": "bool",
          "name": "active",
          "type": "bool"
        },
        {
          "internalType": "uint256",
          "name": "expiresAt",
          "type": "uint256"
        },
        {
          "internalType": "enum Subscription.Plan",
          "name": "plan",
          "type": "uint8"
        }
      ],
      "stateMutability": "view",
      "type": "function"
    },
    {
      "inputs": [],
      "name": "owner",
      "outputs": [
        {
          "internalType": "address",
          "name": "",
          "type": "address"
        }
      ],
      "stateMutability": "view",
      "type": "function"
    },
    {
      "inputs": [
        {
          "internalType": "enum Subscription.Plan",
          "name": "",
          "type": "uint8"
        }
      ],
      "name": "prices",
      "outputs": [
        {
          "internalType": "uint256",
          "name": "",
          "type": "uint256"
        }
      ],
      "stateMutability": "view",
      "type": "function"
    },
    {
      "inputs": [
        {
          "internalType": "address",
          "name": "",
          "type": "address"
        }
      ],
      "name": "subscriptions",
      "outputs": [
        {
          "internalType": "uint256",
          "name": "expiresAt",
          "type": "uint256"
        },
        {
          "internalType": "enum Subscription.Plan",
          "name": "plan",
          "type": "uint8"
        },
        {
          "internalType": "bool",
          "name": "active",
          "type": "bool"
        }
      ],
      "stateMutability": "view",
      "type": "function"
    },
    {
      "inputs": [
        {
          "internalType": "enum Subscription.Plan",
          "name": "plan",
          "type": "uint8"
        },
        {
          "internalType": "uint256",
          "name": "newPrice",
          "type": "uint256"
        }
      ],
      "name": "updatePrice",
      "outputs": [],
      "stateMutability": "nonpayable",
      "type": "function"
    },
    {
      "inputs": [],
      "name": "withdraw",
      "outputs": [],
      "stateMutability": "nonpayable",
      "type": "function"
    }
  ],
  "bytecode": "0x60806040523480156200001157600080fd5b506040516200109e3803806200109e833981810160405281019062000037919062000187565b336000806101000a81548173ffffffffffffffffffffffffffffffffffffffff021916908373ffffffffffffffffffffffffffffffffffffffff1602179055508260026000806002811115620000925762000091620001e3565b5b6002811115620000a757620000a6620001e3565b5b815260200190815260200160002081905550816002600060016002811115620000d557620000d4620001e3565b5b6002811115620000ea57620000e9620001e3565b5b8152602001908152602001600020819055508060026000600280811115620001175762000116620001e3565b5b60028111156200012c576200012b620001e3565b5b81526020019081526020016000208190555050505062000212565b600080fd5b6000819050919050565b62000161816200014c565b81146200016d57600080fd5b50565b600081519050620001818162000156565b92915050565b600080600060608486031215620001a357620001a262000147565b5b6000620001b38682870162000170565b9350506020620001c68682870162000170565b9250506040620001d98682870162000170565b9150509250925092565b7f4e487b7100000000000000000000000000000000000000000000000000000000600052602160045260246000fd5b610e7c80620002226000396000f3fe60806040526004361061007a5760003560e01c80638da5cb5b1161004e5780638da5cb5b1461013b578063a183fd8514610166578063ea8a1af014610182578063f046395a146101995761007a565b80627fa4f01461007f5780630cbebc24146100a85780633ccfd60b146100e75780638a3177a3146100fe575b600080fd5b34801561008b57600080fd5b506100a660048036038101906100a191906109a3565b6101d8565b005b3480156100b457600080fd5b506100cf60048036038101906100ca9190610a41565b6102df565b6040516100de93929190610b0f565b60405180910390f35b3480156100f357600080fd5b506100fc6103c3565b005b34801561010a57600080fd5b5061012560048036038101906101209190610b46565b6104ba565b6040516101329190610b73565b60405180910390f35b34801561014757600080fd5b506101506104d2565b60405161015d9190610b9d565b60405180910390f35b610180600480360381019061017b91906109a3565b6104f6565b005b34801561018e57600080fd5b5061019761085f565b005b3480156101a557600080fd5b506101c060048036038101906101bb9190610a41565b6108ff565b6040516101cf93929190610bb8565b60405180910390f35b60008054906101000a900473ffffffffffffffffffffffffffffffffffffffff1673ffffffffffffffffffffffffffffffffffffffff163373ffffffffffffffffffffffffffffffffffffffff1614610266576040517f08c379a000000000000000000000000000000000000000000000000000000000815260040161025d90610c4c565b60405180910390fd5b806002600084600281111561027e5761027d610a98565b5b60028111156102905761028f610a98565b5b8152602001908152602001600020819055507ff798c75b2db09ea1034d9be253e9974b17bbe4a06f2b0ff6695054fa5b74719182826040516102d3929190610c6c565b60405180910390a15050565b600080600080600160008673ffffffffffffffffffffffffffffffffffffffff1673ffffffffffffffffffffffffffffffffffffffff168152602001908152602001600020604051806060016040529081600082015481526020016001820160009054906101000a900460ff16600281111561035e5761035d610a98565b5b60028111156103705761036f610a98565b5b81526020016001820160019054906101000a900460ff16151515158152505090506000816040015180156103a75750428260000151115b9050808260000151836020015194509450945050509193909250565b60008054906101000a900473ffffffffffffffffffffffffffffffffffffffff1673ffffffffffffffffffffffffffffffffffffffff163373ffffffffffffffffffffffffffffffffffffffff1614610451576040517f08c379a000000000000000000000000000000000000000000000000000000000815260040161044890610c4c565b60405180910390fd5b60008054906101000a900473ffffffffffffffffffffffffffffffffffffffff1673ffffffffffffffffffffffffffffffffffffffff166108fc479081150290604051600060405180830381858888f193505050501580156104b7573d6000803e3d6000fd5b50565b60026020528060005260406000206000915090505481565b60008054906101000a900473ffffffffffffffffffffffffffffffffffffffff1681565b60008111610539576040517f08c379a000000000000000000000000000000000000000000000000000000000815260040161053090610ce1565b60405180910390fd5b6000816002600085600281111561055357610552610a98565b5b600281111561056557610564610a98565b5b81526020019081526020016000205461057e9190610d30565b9050803410156105c3576040517f08c379a00000000000000000000000000000000000000000000000000000000081526004016105ba90610dbe565b60405180910390fd5b600062278d00836105d49190610d30565b90506000429050600160003373ffffffffffffffffffffffffffffffffffffffff1673ffffffffffffffffffffffffffffffffffffffff16815260200190815260200160002060010160019054906101000a900460ff168015610678575042600160003373ffffffffffffffffffffffffffffffffffffffff1673ffffffffffffffffffffffffffffffffffffffff16815260200190815260200160002060000154115b156106d25781600160003373ffffffffffffffffffffffffffffffffffffffff1673ffffffffffffffffffffffffffffffffffffffff168152602001908152602001600020600001546106cb9190610dde565b90506106e1565b81426106de9190610dde565b90505b604051806060016040528082815260200186600281111561070557610704610a98565b5b815260200160011515815250600160003373ffffffffffffffffffffffffffffffffffffffff1673ffffffffffffffffffffffffffffffffffffffff1681526020019081526020016000206000820151816000015560208201518160010160006101000a81548160ff0219169083600281111561078557610784610a98565b5b021790555060408201518160010160016101000a81548160ff02191690831515021790555090505082341115610808573373ffffffffffffffffffffffffffffffffffffffff166108fc84346107db9190610e12565b9081150290604051600060405180830381858888f19350505050158015610806573d6000803e3d6000fd5b505b3373ffffffffffffffffffffffffffffffffffffffff167f044f95a2d17727b5b87e4f23d70278b59a2b0b285289cc9021cac8cdba4797b78683604051610850929190610c6c565b60405180910390a25050505050565b6000600160003373ffffffffffffffffffffffffffffffffffffffff1673ffffffffffffffffffffffffffffffffffffffff16815260200190815260200160002060010160016101000a81548160ff0219169083151502179055503373ffffffffffffffffffffffffffffffffffffffff167f398bd6b21ae4164ec322fb0eb8c2eb6277f36fd41903fbbed594dfe12559128160405160405180910390a2565b60016020528060005260406000206000915090508060000154908060010160009054906101000a900460ff16908060010160019054906101000a900460ff16905083565b600080fd5b6003811061095557600080fd5b50565b60008135905061096781610948565b92915050565b6000819050919050565b6109808161096d565b811461098b57600080fd5b50565b60008135905061099d81610977565b92915050565b600080604083850312156109ba576109b9610943565b5b60006109c885828601610958565b92505060206109d98582860161098e565b9150509250929050565b600073ffffffffffffffffffffffffffffffffffffffff82169050919050565b6000610a0e826109e3565b9050919050565b610a1e81610a03565b8114610a2957600080fd5b50565b600081359050610a3b81610a15565b92915050565b600060208284031215610a5757610a56610943565b5b6000610a6584828501610a2c565b91505092915050565b60008115159050919050565b610a8381610a6e565b82525050565b610a928161096d565b82525050565b7f4e487b7100000000000000000000000000000000000000000000000000000000600052602160045260246000fd5b60038110610ad857610ad7610a98565b5b50565b6000819050610ae982610ac7565b919050565b6000610af982610adb565b9050919050565b610b0981610aee565b82525050565b6000606082019050610b246000830186610a7a565b610b316020830185610a89565b610b3e6040830184610b00565b949350505050565b600060208284031215610b5c57610b5b610943565b5b6000610b6a84828501610958565b91505092915050565b6000602082019050610b886000830184610a89565b92915050565b610b9781610a03565b82525050565b6000602082019050610bb26000830184610b8e565b92915050565b6000606082019050610bcd6000830186610a89565b610bda6020830185610b00565b610be76040830184610a7a565b949350505050565b600082825260208201905092915050565b7f6f6e6c79206f776e657200000000000000000000000000000000000000000000600082015250565b6000610c36600a83610bef565b9150610c4182610c00565b602082019050919050565b60006020820190508181036000830152610c6581610c29565b9050919050565b6000604082019050610c816000830185610b00565b610c8e6020830184610a89565b9392505050565b7f6d6f6e7468733e30000000000000000000000000000000000000000000000000600082015250565b6000610ccb600883610bef565b9150610cd682610c95565b602082019050919050565b60006020820190508181036000830152610cfa81610cbe565b9050919050565b7f4e487b7100000000000000000000000000000000000000000000000000000000600052601160045260246000fd5b6000610d3b8261096d565b9150610d468361096d565b9250828202610d548161096d565b91508282048414831517610d6b57610d6a610d01565b5b5092915050565b7f696e73756666696369656e74207061796d656e74000000000000000000000000600082015250565b6000610da8601483610bef565b9150610db382610d72565b602082019050919050565b60006020820190508181036000830152610dd781610d9b565b9050919050565b6000610de98261096d565b9150610df48361096d565b9250828201905080821115610e0c57610e0b610d01565b5b92915050565b6000610e1d8261096d565b9150610e288361096d565b9250828203905081811115610e4057610e3f610d01565b5b9291505056fea2646970667358221220687a09202b200f50707366a5c06e9e6e5684373e311aff97a7843029e260ae2664736f6c63430008130033",
  "linkReferences": {},
  "deployedLinkReferences": {}
}